:1000000000400020175E0000155E000075570000DC
:1000100000000000000000000000000000000000E0
:10002000000000000000000000000000155E00005D
:100030000000000000000000155E0000155E0000DA
:10004000155E0000155E0000DD590000315900000A
:100050002159000000000000AD7E01004159000060
:1000600085810100554A000071810100B9800100BD
:10007000E5580000155E0000155E0000155E0000EA
:10008000155E0000A5800100155E0000155E0000F1
:100090002D4A0000155E0000155E0000155E000090
:1000A000155E0000155E0000F0B5A3B00B91019045
:1000B000838904339B00C1180B0004330691190097
:1000C0000293C28953009B189B000C3BCB180C93E6
:1000D000BC4B1C33079316A818F0F4FD002800D081
:1000E00004E1019B5E689D680B9B002B00D120E121
:1000F0003378682B00D11CE10B9F0B9038000CF07B
:1001000065FB002800D02CE1380008F0BDFD0CF0A4
:100110005DFB002801D101F03BF9AB4B1A001B69D4
:100120001B6803931300039A1A611797A74B039355
:100130003B68A74CA74E039978318B4219D09A0798
:1001400024D11A68A24221D15B6B002B1ED01A6801
:100150000320B2420BD10CE1034217D1A24215D1C8
:100160005B6B002B12D01A68B24200D101E18B42C6
:10017000F2D1019B5B68002B08D01A784B2A01D181
:1001800001F00DF9682A01D101F032FA8D4B0C33E0
:100190009F4279D0019A536803931B785D2B73D0EB
:1001A000642B71D013689A68531C12787F2A01D887
:1001B00001F03DFA00229A565E1C3300002AF9DB5A
:1001C00001233278741C5706134052B2BF0E002A26
:1001D00014DA3F2100228C4601200132B15C6546D1
:1001E000084090400343481028405500AD186D006A
:1001F000A84049B2013407430029EDDBDD19032390
:10020000651903359D43039B10A85D1B109417F0DF
:10021000CDF804900023E356661C3400002BF9DB74
:100220000FA80F9617F0C2F803900023F356701C26
:100230000600002BF9DB0178012200291CD00F23D6
:10024000E0279C46FF001F260AE0330001300B40E8
:100250004909AB4210D852180178ED1A00290BD089
:100260004BB2002BF1DA634644780B400901394068
:1002700021430230AB42EED9179B039905930598B1
:10028000049B0CF05BFA179F0C9B029A9A4211D8C0
:100290000C9B019A1B68526893420BD8029903E0A9
:1002A0000C9B1B68934205D80C9B0C3B0C930C9B3E
:1002B0009942F5D90C9B029A9A4201D901F0F1F9C1
:1002C0000C9B01991B680393039A0C9B4A600322C1
:1002D0005B6893430C9A043397600A001F60936035
:1002E00016A818F0EFFC002800D1FAE6179F1DE7CA
:1002F000260000277F210A003378FF011A405BB2F5
:10030000D7190136002BF6DB02242B1D0493FB00CA
:100310001C432D4B0393DB680593181D002221001D
:1003200008F06EFE002801D101F0EEF943686B6021
:10033000049D019B741C5E60307827000300103B15
:10034000DBB2592B01D901F015F8234A9B00D35891
:100350009F46043D2F6838000CF038FA002800D181
:10036000D2E638000023002200210FF0C1FD070073
:10037000D3E61D00194A5B6808359B189B00EB18F3
:100380009D4201D301F01AF804971F0004E00435E0
:10039000AF4201D801F011F81149286811F094F822
:1003A0000028F4D0049FE4E6CF2801D901F0CCF96D
:1003B000C0232A68181A069B8000C250043D2600FC
:1003C000B7E7C046C4940100DC020020C4970100D6
:1003D00064F5010060EA01005C930100FFFFFF3F4C
:1003E0003C9801000C9B2A680C3B0C93062AE5D034
:1003F000D30701D401F0E0FA291F521001D400F014
:10040000E0FF0D000C9B029A9A421AD810000121BD
:1004100002220C9B5B6813420DD00C9B1B689C4214
:1004200001D201F007F92B1F1E680E4200D0043BD9
:100430002D681D601D000C9B0C3B0C930C9B98427F
:10044000E7D9D54B00201A6912681A61019B9D609B
:1004500012E03700119B2B600120CF4B01991A69E4
:1004600012681A610C9B029A0C339B1ACB4A9B10A0
:1004700053434F608D60CB8123B0F0BD2B1F03939E
:100480002B685E68B768002F26D00025049402E030
:100490000135BD421FD2F468290020000DF086F915
:1004A0000028F5D0EF00E0590BF09EFB03785F2B9E
:1004B0000DD0F368D8590BF0AFFBF368C100DF191A
:1004C00002231943B44B7A6898680CF0FDFAB768B8
:1004D0000135BD42DFD3049C039D260029E7019B23
:1004E0002F1F29689F600B9B002B01D101F0B1F9F0
:1004F0000B9B00211A000493002338680B9311AB67
:100500000FF0BDFD0128A4D0002801D001F031FA80
:10051000119B002B01D101F073F93B60049B002B70
:1005200012D0180008F0B0FB06000CF04FF90500DF
:100530003000002D00D10498994E310010F0C4FF16
:10054000002801D001F042F93D002600F1E62B68B9
:100550002600AB602B1F1B686B600835E9E62F0097
:100560002B1F083F1E683B682968181D012208F0F0
:1005700047FD3D004660E8E72E00290028680C365C
:100580000FF026FC854202D0002368602B60350006
:100590002600CEE6002128680FF01AFC286026000D
:1005A000C7E60C9B029A05E09F68002F01D001F07E
:1005B00038F80C3B9A42F7D9102002F0D8FA764B63
:1005C000041E01D101F0E0F90393764B76482360D5
:1005D0001E231E21A360E06001F0CCFC002201215B
:1005E000606011AB1194714844300BF049FF039ADD
:1005F0000700130093E52B686B602600043598E62E
:100600002B1F1F68043B38001E6808F03DFB036A7F
:10061000002B01D100F0C9FF32002968380098474B
:10062000002801D100F0C1FF0C3D260081E62F68B3
:10063000062F01D101F063F9FB0701D500F048FF57
:100640006F60BB0701D101F07CF80F233B409A009B
:10065000574B9B18DB692B600623AB602B1F196877
:100660002F004B1E99418B075B1A083F9B00EB182C
:100670000331002238680FF03BFC06000E2801D140
:1006800000F0B2FF1E280BD0062801D100F0ACFF0D
:10069000C30701D400F094FF012801D100F0A4FFAA
:1006A00006233B603D0050E72A1F136829682B6032
:1006B0002B00083B186826001060196039E62B1FD4
:1006C0002A681968260029601A6032E62F1F3E68E2
:1006D000300008F0D9FA036A002B01D100F05DFF69
:1006E0002968042230009847002801D100F055FF06
:1006F00038603D0029E7284B2E1D1A008023D05872
:10070000002801D100F0A2FF04300022294908F09E
:1007100077FC002801D100F099FF43686B60350039
:1007200036E700237F2001003A78DB01114052B206
:10073000CB180137002AF6DB9A089200524254592E
:100740000322134001D100F088FF012B01D100F0FA
:1007500007FF2968201D012208F0BBFB043D3E0075
:10076000E7E5637822781B0213430C9A03360C32B8
:100770000C920C9AF3181360019B0C9A5B6803931C
:100780001B78493B5842584143002B435360002299
:100790000C9B9A60CDE5C046DC020020ABAAAAAA59
:1007A000C497010084C40100F4F6010044970100DD
:1007B000C49501006A0500002F682A000D21380049
:1007C0000FF0D2FA2B68002B01D100F083FF2B0031
:1007D000083338001A000C2103930FF0C5FAA868FB
:1007E000002801D100F0C8FEE968039F4B1E994123
:1007F0008B075B1A9B000833FB1800220FF078FB75
:100800000221637822781B0213430C9A03360C32C0
:100810000C920C9AF31813600C9A2B1D0B43536027
:1008200000220C9B9A60A8603D0082E563782278E4
:100830001B022F6813431C0003360E2F1CD01E2FE3
:1008400044D0062F18D0FB0701D500F07CFE3800FD
:1008500008F01AFA4369002B01D101F003F83900BE
:1008600004209847002801D100F0FCFF1E384342C5
:100870004341DBB2002B29D1DA4BE41836198AE068
:10088000637822781B022F6813431C0003360E2F57
:100890001CD01E2FF0D0062F18D0FB0701D500F07A
:1008A0004CFE380008F0F0F94369002B01D100F04C
:1008B000FFFF390004209847002801D100F0F8FF1D
:1008C0001E3843424341DBB2002BD5D1043D62E0E8
:1008D000237864782F6824021C432B1F033603936C
:1008E0000E2F1FD01E2F01D100F0D8FE062F19D0D9
:1008F000FB0701D500F01AFE380008F0C5F943697E
:10090000002B01D100F0E1FF3900042098470028B6
:1009100001D100F0DAFF1E3843424341DBB2039DB0
:10092000002B38D1AF4BE4183619039D33E0237800
:1009300064782F6824021C432B1F033603930E2F69
:1009400001D100F0ABFE1E2FECD0062F01D100F03C
:10095000A5FEFB0701D500F0E3FD380008F094F98F
:100960004369002B01D100F0BDFF390004209847F6
:10097000002801D100F0B6FF1E3843424341DBB2EC
:10098000002BCFD1039D06E0637822781B0213432E
:10099000954A9B18F618954B0393DB6C002B00D1FE
:1009A000C7E40022039BDF6CDA641A6912681A61DB
:1009B000FFF7BBFB637822781B021343894AF71CBD
:1009C0009B18FB186B60F278291DAA6053061AD099
:1009D000022001257F240C9B013A5B6803420DD065
:1009E0000C9B1B689F4201D200F012FE0B1F1E6879
:1009F0002E4200D0043B0968196019000C9B0C3B87
:100A00000C931442E7D10D000E68143D002AC2D1A8
:100A10000D1FC0E7260000217F2002003378C901A6
:100A20001A405BB251180136002BF6DBFF22CB09CE
:100A300052001340FF3A0A409B189B00ED1A0C3DF0
:100A40002A0001200FF005FC286072E42600002037
:100A50007F210A003378C0011A405BB210180136BA
:100A6000002BF6DBFF22FF211400C30904404900DC
:100A70000B40611C5B189B00ED1A6968000A4B1E55
:100A800099418B075B1A9B0008330240EB186118F1
:100A900028680FF02DFA28604BE4260000217F2003
:100AA00002003378C9011A405BB251180136002B9D
:100AB000F6DBFF22CB0952001340FF3A0A409B1895
:100AC0009B00ED1A083D2A000020BBE7260000230A
:100AD0007F2001003278DB01114052B2CB18013681
:100AE000002AF6DBFF210A00FF201A401400400014
:100AF000DA09024012199200AD1A04942C0004CCB9
:100B00001B0A194010000591039208F0BDF807690F
:100B1000002F01D100F0A5FF2300059A0499039846
:100B2000B8472860FFF705FC0323E61C9E4308CE68
:100B30002F1F2A68596809933D689B6804920591A4
:100B40000893002D01D100F068FE6B680393002A22
:100B500001D100F094FE581D800002F09FF80400BF
:100B6000234805990A90103020602048089AC068F0
:100B7000A160606029002000039BE26010309A00B1
:100B8000083118F0D3F8039A0432049B92001351F1
:100B9000099B1B881B0702D50A9B4C3323603C60D2
:100BA0003D00FFF7C6FB0323E61C9E4310CE2B1D22
:100BB0000393A36810206768049302F06FF80C4B4E
:100BC0000A491A0010320260C968049A41608760BD
:100BD000C2602288120701D54C3303606860039D10
:100BE000FFF7A7FB0080FFFF0380FFFFDC02002070
:100BF000C496010000267F2211003B78F6011940BF
:100C00005BB28E190137002BF6DBFF231A00286830
:100C10003240360A03921E40830700D1E8E30021E8
:100C20000FF0D6F800230D93039B0490002B13D0F4
:100C30001C000597049F38000FF0B4FA0D9B0028A4
:100C400001D100F0E5FEE21A9219920001335051F1
:100C50000D939C42EFD8059F00200EF0DFF905951B
:100C60000400049D03E00100200017F0DBFD2800D4
:100C70000FF098FA0028F6D1A368059D9E4201D98D
:100C800000F0C5FEB0002C50002E0DD0002204381C
:100C90002818A368E1689B1B9B189B005B580132D6
:100CA000036004389642F4D1A3689B1BA360039BA6
:100CB0009C19A4002D193E00FFF73BFB00247F2167
:100CC0000A003B78E4011A405BB214190137002B8B
:100CD000F6DB2868830700D1CFE311A90FF078F87D
:100CE000002306000D93002C10D030000FF05AFAAC
:100CF000002801D100F0AEFE0D9BDF4AD21A121976
:100D00009200013350510D939C42EED830000FF009
:100D100049FA002801D000F09FFED74BE418A40048
:100D2000C8E7062368E4002366E41E2364E42F007A
:100D3000637822781B0213431C00019B0C3F9D60CB
:100D40003B680336002B01D100F07EFD380007F030
:100D50009BFF836A002B01D100F0ACFC3800984760
:100D6000002801D100F055FD68600435FFF7E1FA75
:100D70000C9B22780C3B0C9363781B0213430333C8
:100D800008E60E2338E4260000217F200200337895
:100D9000C9011A405BB251180136002BF6DB2C005A
:100DA00001CC0FF0B8F868602500FFF7C2FA260002
:100DB00000237F2001003278DB01114052B2CB18B2
:100DC0000136002AF6DB0220DB0003432F1F3A68BE
:100DD00029681193062312931393A84B15921A00B6
:100DE0008023D0581491002800D1B3E304300022AE
:100DF000A34908F005F9002800D1ABE3406811AB26
:100E0000002205210FF074F838603D00FFF791FAD9
:100E1000260000217F2002003378C9011A405BB20E
:100E200051180136002BF6DB0223C9001943934BFE
:100E3000D8680BF03EFEFFF77CFA260000217F20E9
:100E400002003378C9011A405BB251180136002BF9
:100E5000F6DB0223C9001943884B9868E9E72600AE
:100E60007F2100240A003378E4011A405BB2141990
:100E70000136002BF6DB2F682B1F1B68380003930D
:100E800007F002FFC369002B01D100F0E8FD042246
:100E90001192039A21001292380011AA9847119BCF
:100EA000002B01D000F0DBFD083DFFF742FA2600E1
:100EB00000217F2002003378C9011A405BB251182B
:100EC0000136002BF6DB0223C90019436B4B2A685D
:100ED000D8682C1F0BF0F8FD2500FFF72AFA260032
:100EE00000217F2002003378C9011A405BB25118FB
:100EF0000136002BF6DB0223C90019435F4B2C1F80
:100F00002A689868E6E7260000217F2002003378EF
:100F1000C9011A405BB251180136002BF6DB2A00DA
:100F2000584B2C1F603311932368083A12932B6897
:100F300011A8139325000EF0B5FFFFF7FAF900246E
:100F40007F210A003B78E4011A405BB21419013793
:100F5000002BF6DB2E682A00210030000EF004FF83
:100F60002B68002B00D1C2E304353E00FFF7E1F906
:100F7000260000217F2002003378C9011A405BB2AD
:100F800051180136002BF6DB11AA28680EF08AFFF3
:100F9000129C002C00D189E30C20119F01F07EFEF1
:100FA000394B47606833036084602860FFF7C1F9FC
:100FB000260000277F210A003378FF011A405BB228
:100FC000D7190136002BF6DB2B1D04932B4B039313
:100FD0009868DB680593984201D100F014FC022464
:100FE000FB001C4304300022210008F009F800280F
:100FF00001D0FFF79BF9039BD8680430FFF78EF907
:10100000260000237F2001003278DB01114052B21C
:10101000CB180136002AF6DB0222DB0013436B609B
:101020000435FFF786F9260000237F20010032787F
:10103000DB01114052B2CB180136002AF6DB069ACA
:101040009B005B429B582A68043D5A60FFF771F988
:10105000260000237F2001003278DB01114052B2CC
:10106000CB180136002AF6DB29689B00069A5B4202
:101070009950043DFFF75DF9FFFFFF3FDC020020C0
:10108000B205000044950100C4940100260000232D
:101090007F2001003278DB01114052B2CB180136BB
:1010A000002AF6DB9B00069A5B429B585B68002B8C
:1010B000B5D1102001F05BFDC34B041E01D100F03F
:1010C0008EFC0393C14BC24823602B232B21A360CA
:1010D000E06000F04FFF11AB60600022119401212D
:1010E0000798FFF782FA260000237F20010032785C
:1010F000DB01114052B2CB180136002AF6DB9B000F
:10110000069A5B429B58D2E70323E61C9E4308CE17
:101110006B6085E773787F2026005B06DB17010094
:101120003278DB01114052B20B430136002AF6DB64
:1011300001225B00134372E7032303349C432779A6
:101140002068FB439B00ED1829686A680FF074FA69
:10115000FA1C920003901000049201F09FFD2900F8
:101160009C4B049A08330360039B661D4360040094
:1011700087600C3A0C30083117F0D8FD2C60FFF76F
:10118000D8F8032303349C4327790021BB0020684F
:101190000022ED1A0FF050FAFA1C92000390100092
:1011A000049201F07BFD8B4B049A08330360039B90
:1011B0000435661D4360040087600C3A0C3029003A
:1011C000DAE726007F2100240A003378E4011A4080
:1011D0005BB214190136002BF6DBA300ED1A0435BF
:1011E00020000DF01BFF002D00D12DE4002C00D1BC
:1011F0002AE40023A400E958C268D15004339C4279
:10120000F9D12860FFF795F8260000207F210A0019
:101210003378C0011A405BB210180136002BF6DBA0
:101220008300ED1A0435002800D06EE16A4828607A
:10123000FFF77FF800237F2001003A78DB0111409F
:1012400052B2CB180137002AF6DB069A9B005B42AC
:101250009B585A68002A00D12BE700223E005A60B2
:10126000FFF767F826007F2100240A003378E401A5
:101270001A405BB214190136002BF6DBA3001020D4
:10128000ED1A01F00BFD0200544B07005C3308C25D
:101290000023039083604460A000049201F0FEFCF0
:1012A0000435F86000232F00002C0DD005961E0099
:1012B0000895049D02CF01222800013607F009FE9F
:1012C000B442F7D1059E089D039B2B60FFF731F8D0
:1012D00026007F22002411003378E40119405BB21C
:1012E0000C190136002BF6DB2B1D1020039301F0A7
:1012F000D5FC3B4B070003608460002C00D00AE162
:10130000C46007237A6813407B6001233B716F60E0
:10131000039DFFF70EF800237F2001003A78DB01E0
:10132000114052B2CB180137002AF6DB069A9B0017
:10133000D31A1A68002A00D1BBE600223E001A60C8
:10134000FEF7F7FFB31C039373780626032B00D137
:1013500080E12C1F10202D68276801F09FFC214B95
:1013600085601833C6600360476025002060039ED7
:10137000FEF7DFFFAF2800D8A3E0BF2801D9FFF7B1
:1013800013F8B023181A069B8000C35826008EE677
:10139000154916480BF09EFA0700FEF7BEFE597875
:1013A000DA1C9B781B020B43D318019A5360936895
:1013B0000393103B9360FEF793FF049F2B68FEF7A7
:1013C000BAFE2A60FFF702FBDC02002084C40100A1
:1013D000CCF5010044970100D8EA0100C495010052
:1013E00014EA010044960100A0F50100D4F30100C5
:1013F0000268E24B9A4204D0E14B54339A4200D047
:101400000DE40E900E9811AA0DA907F085FF039B1D
:101410009C190D9B9C469C4200D9FAE2002E00D1FB
:10142000DAE22A00D74BB10063449B0004916818AC
:101430001199C958043B02C29042F9D1049BEB18A0
:101440000493039B11989900059141186046C01AB6
:10145000801B0DF0EEFD0599049A0B1F0399106097
:10146000002906D011990432C958043B1160191D96
:10147000F8D10023A4000E931CE40268BF4B9A42EB
:1014800004D0BF4B54339A4200D026E411AA0DA9D0
:1014900007F042FF0D9A944200D9BBE200D2DBE292
:1014A000002C00D193E2B74B2A00E418A4002300DB
:1014B0001199C958043B02C2191DF9D12D19FFF722
:1014C000FAFB03000122803B5B001343FFF794F813
:1014D0002A1F13682E0003930623083E13602B6017
:1014E0006B60316800224B1E99418B075B1A9B0091
:1014F000043BEB180C3D033128680EF0F9FC039B0C
:101500002B6037603500FFF743F829000AF02DFA09
:101510002860FEF70EFFE00001F0C0FBF860F0E687
:10152000012F01D0FFF7FEF9FFF7FFF9012F01D1DD
:10153000FFF7F8F9039DFFF72EFA012F01D0FFF70F
:101540009BF9FFF7C3F9012F01D1FFF795F9043D8E
:10155000FFF721FA11A905200DF0CFFE386054E401
:101560002B1F2968201D01221E6807F049FD083D38
:1015700046603E00FEF7DDFEBB0704D1824B3A68B1
:101580009A4200D11EE1380007F09BFC0C230200B8
:101590007E497F48243007F065FE300007F091FC5B
:1015A00002007C497C4807F05DFE3800002E00D127
:1015B0002BE2042EF2D007F084FC78490200F1E718
:1015C00007F062FB4369002B00D1EFE031000420FB
:1015D0009847002800D1E9E01E3843424341DBB27E
:1015E000002B01D0FFF75CF86B683B60FFF75AF8FF
:1015F000FA68019B506899680623002800D0936818
:10160000019A0B605368039301335360FEF763FD47
:10161000012352001A430D1D4A600C9B1E68FEF701
:1016200088FE5F4B1A0003931300FEF778FD1E003F
:10163000FEF7C6FD03220C9B5B6893432A681D00DE
:101640005A600122524208359A60E6E7554B6B60BA
:10165000FFF765F82E68043D7BE6A36861682E6895
:101660008B4213D3C900E06801F074FA6368A16883
:101670005A00444B6260521A0131D2188900E0606E
:1016800092004018002117F086FBA368E268591CFD
:101690009B00A160043D9E50FFF761F81D00FFF71D
:1016A0007AF9019B02205F61FEF7E6FE119828603F
:1016B000FEF73FFE11AA192138000EF055FB119BD1
:1016C000002B00D1B6E111AA002100200EF0C8FCC9
:1016D000FFF746FBBB0704D12B4B3A689A4200D177
:1016E00066E1380007F0EDFB0D23020050E7B30779
:1016F00004D1254B32689A4200D17DE0300007F0DA
:10170000E0FB2300020043E78023039AD05800281F
:1017100008D004300022210007F072FC002801D01C
:10172000FEF704FE1F4800225C30210007F068FC31
:10173000002801D0FEF7FAFD1A483A001C301A4979
:1017400031E73B68FEF787FFD32800D804E1F9288A
:1017500000D962E129302F1FC0B22A6839680728F2
:1017600000D1F0E0022800D1FEE0052800D1FBE026
:1017700007F0BEFE3860FEF7BCFFC04660EA01001D
:1017800044960100FFFFFF3F64F5010038F60100B9
:10179000449501005CF60100D4F301007CF60100E1
:1017A000DC020020C4940100F8F50100300007F0CD
:1017B00077FA002801D1FEF773FF01380300581EA5
:1017C00083410CE7FA880C23A749E2E604980396C4
:1017D0000AF0FCFF002800D035E1049F002D00D165
:1017E0002BE1A24B1A001B691B6817970493130087
:1017F000049A1A61FEF79CFCF28823009A49C8E615
:101800000633FEF78AFE0224FB001C430430FEF779
:1018100085FD103D3619FEF78CFD002A00D181E0D0
:10182000142001F03BFA924B04000A93103303603A
:101830008E4BDB684360059B8360089BC36000237D
:1018400003931A00FFF7A0F92B00083B1F68FFF76E
:101850007DFA11AB002238680EF011FC00230493CE
:10186000FEF750FE380007F01BFA002801D1FFF701
:101870002DF801380300581E8341FEF7FAFF181DAA
:10188000800001F00BFA2900794B784A0A93103353
:101890000360D268039B4260059A04008260089A44
:1018A0000831C2609A00103017F040FAFFF770F963
:1018B000380007F0F5F9002801D1FEF7DDFF013807
:1018C0000300581E8341FEF7FEFF380007F0E8F9D9
:1018D000002801D1FFF729F801380300581E834181
:1018E000FFF71CF8380007F0DBF9002801D1FFF7FB
:1018F00019F801380300581E8341FFF740F86F6064
:10190000AF602B1F19682E004B1E99418B075B1A85
:10191000083E9B00EB180331002230680EF0E8FA15
:101920003760EFE5102001F0B9F9514B04000A933C
:10193000103303604D4BDB684360059B8360089B5D
:10194000C360FFF725F907308A4201D0FEF7D0FEC9
:1019500010303860FEF7CDFE3030C0B229680EF08E
:10196000EAFD2860FEF71BFE07F0EAF93860FEF793
:10197000C0FE3E4B119F1A001B691B6803931300A6
:10198000039A1A61FEF7D1FB1A000393AA235B00A6
:10199000D358332B07D9936A1C0024340493002CAA
:1019A00001D0FEF712FE002300220021FEF71BFEED
:1019B000FA880D232C49ECE52C4B1A001B691B6897
:1019C00003931300039A1A612F68FEF7AEFB0424F9
:1019D00064422D19FFF76FF9002304932FE51A00D5
:1019E0000393AA235B00D358332B07D9936A1C00B7
:1019F00024340493002C01D0FFF764FB1D4800231E
:101A0000002200211C30FEF7F0FD17F08FFC0D9B2B
:101A10009C46624618491948C5E5194819493C30A1
:101A20000AF058FF040000F065FD019B02205C6194
:101A3000FEF722FD380017F04BFC134913480AF05B
:101A400049FF0700CDE600230022002104980EF094
:101A50004FFAF6E70D9ADDE722000D49DBE7380083
:101A60004DE6039817F06EFC10F60100DC02002032
:101A7000C4960100C4940100A8F601006CF40100B2
:101A8000C497010014F70100A0F50100D4F3010090
:101A9000CCF6010004230122591A03008A40411D9B
:101AA0001878104003D101339942F9D170470120D1
:101AB000FCE710B504210400FFF7ECFF030004204D
:101AC000002B06D103212000FFF7E4FF431E9841BD
:101AD000023010BD0300203B5E2B00D93F200523C0
:101AE000203843430148C0187047C04604A601008F
:101AF000002210B50276036942690400C360934274
:101B00000ED21878A37E2077002B02D005236376AF
:101B100005E0FFF7DFFFFFF7CCFF0130607610BD77
:101B2000202303771B3BF2E710B508F055FB642137
:101B300017F0CCFA17F0B9F810BD70B5836804003F
:101B40005D1C8560406807F096FB07F06BF88542E6
:101B500001DB0023A3600121A36804225B00194379
:101B600060680CF037FC70BD10B5052803D14868DB
:101B700007F081FB10BD0020FCE7F7B50700080067
:101B8000FFF7A8FF00240600042300251B1B019378
:101B9000735D019A2100134101221340083253431F
:101BA00038002A00013512F0F6F9052DF0D1013484
:101BB000052CE9D1F7BD13B5040001A9406809F06F
:101BC000F7FFA268019900238A4207D2815CE0688E
:101BD000FFF7D3FFA3680133A360E368180016BDC5
:101BE000F7B504000F000025042A0FD101A94068B1
:101BF00009F0DEFF2B0006003A000199206807F08B
:101C00004DFB315CA068FFF7B8FFA5682800FEBD5A
:101C1000F8B5C3684269040093420BD1037E052BDB
:101C200008D1C37E181E47D02000FFF761FFA068CF
:101C300012F0A6F9002600250421A068771C8279FD
:101C40006A43D2195308C318DB7992000A40134142
:101C50000F22310013402A00013512F09CF9052DA6
:101C6000EAD13E00042FE6D100252A0000230421FA
:101C7000A068013512F08FF9052DF6D1227E637E22
:101C80009A421AD2207FFFF725FF0025070004267D
:101C9000227E7B5DB21A1341012213400832534366
:101CA00004212A00A068013512F075F9052DEFD145
:101CB000237EA06801332376F8BD9A42F8D1E36809
:101CC00061695A1CE2608A4205D1202323770023F0
:101CD00065762376ECE758782077FFF7FBFEA17E48
:101CE0000600002903D0FF2365762376E0E7FFF79F
:101CF000D1FE404220763000FFF7DBFE01306076F7
:101D0000D6E7F7B506000191002902DA174807F077
:101D1000E7FB11F031FE0400300011F01FFE01005E
:101D2000200011F005FE00250700300011F024FE10
:101D3000854218DA00240FE022002900300011F05B
:101D400029FE019B4343082B00DD092322002900C3
:101D5000380012F020F90134300011F00DFE8442F9
:101D6000EADB0135E1E73800FEBDC0461BF70100A4
:101D7000F0B587B0049008000E00170006F084FF4D
:101D8000364DA84266D104981B38052862D817F052
:101D9000FFF81C1C03610F1C380006F043FF0A21EA
:101DA00041433000FFF7ADFF0400200007B0F0BD55
:101DB000380006F037FF0100642017F087F90A2188
:101DC000053017F083F90100EBE7380006F05CFFFF
:101DD0000024A842E9D1300011F0C0FD019030008C
:101DE00011F0CAFD0290380011F0B8FD019B83424A
:101DF00002D01B4807F074FB0199029811F098FD7E
:101E00000390029BA34227DD002518E02A00210051
:101E1000300011F0BFFD2A0005902100380011F0BC
:101E2000B9FD049B1B2B0FD1059B1B18092B00DD53
:101E300009232A002100039812F0ADF80135019B17
:101E4000AB42E3DC0134DCE7059B1B1ADA43D21713
:101E50001340EEE70024A8E7039CA6E738D501006D
:101E600047F70100F7B5060011F086FD009030003D
:101E700011F074FD01900100009811F059FD00254A
:101E80000700019BAB4213DD00240CE021002A0077
:101E9000300011F07FFD092321001B1A2A003800B1
:101EA00012F079F80134009BA342EFDC0135E8E73A
:101EB0003800FEBDF7B5060011F05EFD0090300061
:101EC00011F04CFD01000700009811F031FD0025D4
:101ED0000190AF4212DD00240BE021002A00300007
:101EE00011F058FD210003002A00019812F053F868
:101EF0000134009BA342F0DC0135EAE70198FEBD06
:101F000010B50400080006F08DFE002142422000BA
:101F100012F0F6F910BD10B50400080006F082FEBC
:101F200000210200200012F0EBF910BD10B50400F2
:101F3000080006F077FE00224142200012F0E0F98E
:101F400010BD10B50400080006F06CFE0022010070
:101F5000200012F0D5F910BD054B5B695A6882422A
:101F600004D8801A04308000C05870471B68F5E719
:101F7000DC020020074B4118884204D398B20028A5
:101F800000D1013070475A01D31802780130534014
:101F9000F2E7C04605150000F0B585B001900E00CF
:101FA000FFF7E8FF164B02905C69002C01D120007E
:101FB00021E0270010373D00E3689B00FB180393E6
:101FC000039B9D4201D32468EFE728684378027899
:101FD0001B021343029A9A420FD183789E420CD17E
:101FE00003303200019916F0F6FE002805D1ED1BF2
:101FF0006068AD10281805B0F0BD0435E0E7C046B4
:10200000DC020020B223F0B5554F5B00FA58554969
:1020100083B0554801F04EFFAE235B00F958002510
:1020200089001FD183E00326AB081A002E400193DC
:102030007600AC235B00FB589A5C032332411340CB
:10204000022B72D0032B6ED0012B49D02E22474990
:10205000454801F02FFFAE235B00F9580135890098
:10206000A94264D9AB06DED18D4200D36EE00322D3
:10207000AC2316005B00F858AB0801932E40C35CFC
:10208000760033411A4222D12C00AC4607E01500FD
:10209000A308C35C25406D002B411A4202D10134D4
:1020A0008C42F4D16546621B7F2A10D992093049CF
:1020B0002D4801F0FFFE3F239C431E33FF33FB58A6
:1020C00025009B009C4232D20026A3080193294B95
:1020D0002A011A402849244801F0ECFE019AA8E799
:1020E000B2235B00FB582A01D358244A934227D0DD
:1020F000234A934226D0234A93422DD0224A934228
:102100001CD0224A934219D0214A93421CD0214A22
:10211000934219D0204A934220D0204968228B4212
:1021200095D11B3A93E76D2291E73D228FE701227B
:102130001B49002000F066FE03B0F0BD532286E785
:10214000542284E74C2282E7412280E70326AB0831
:102150002E4001937600BAE7442278E7422276E7E0
:10216000DC02002074F7010064F40100B8F70100FC
:1021700094F70100F0FF0F00B0F7010060EA0100E2
:102180009896010014EA010084C4010078BA0100A5
:102190004CA10100F4D40100D49601009CEA010096
:1021A00090F70100F823F0B51F4E5B00F35A002BA7
:1021B00037D1002835D06533FF33F3580121C31AD6
:1021C0000F20DA171040C018B0235B000011F3583D
:1021D000C2089B180722024091401A7884088A435B
:1021E0001A70FE235B00F25894421BD3AC277F0089
:1021F0000322BC46F5592B5D110017000140490030
:102200008F40BB432B5563460130F55884082B5D46
:1022100011001F00014049000F41390011400229FF
:10222000EAD0F0BDF450E1E7DC020020B423B22292
:10223000F0B54A4F5B005200BA58FB5800269B1A73
:102240000360002300220324844687B04360836038
:10225000C36003614361836103930493029300931A
:102260000593AC2321005B00FB5811409B5D4900A6
:102270000B412340012B44D0002B38D0022B07D137
:102280006046039901310391416000990131009149
:10229000AE21490079580132019189008A420CD05F
:1022A000AC2320005B00FB5896089B5D104040006B
:1022B0000341234001D0012BD3D10098012827D01E
:1022C00002283BD06546009EAD69AE4201D9654605
:1022D000AE618A4222D0012B01D09608C1E7059B4E
:1022E000029883421ED3002396080293B9E7604602
:1022F0000499013104918160029901310291002118
:10230000C5E7604603990131039141600121BEE7B1
:1023100060466546006901302861D3E7029B059855
:10232000834211D963460298D8608A420CD00023B8
:1023300002936346DB689608059392E7604665461C
:10234000406901306861BDE76046039B1B01436043
:10235000049B1B01836007B0F0BDC046DC02002077
:1023600010B58CB005A8FFF761FF069B0B4C0293DC
:10237000079B059A039300930949029B200001F0F3
:1023800099FD08990A9B029101910B99099A009174
:102390002000044901F08EFD0CB010BD64F4010072
:1023A000BCF70100E0F701000023F0B585B0019310
:1023B0006933B227FF339C462E4E7F00AC230021A9
:1023C00003245B00F558013143189A08AA5C2340A6
:1023D0005B001A412240022AF5D0F359000109019D
:1023E0001818890826D089000D180F2103680B42A0
:1023F0001DD1F25993421AD364463459A34216D2DE
:10240000AC249B1ADA170A40D31864001B11345904
:102410001A0003939B08E31800931B781C00029397
:1024200003231A40520014411C40012C0BD00430ED
:10243000A842DBD1019B002B1AD0013B01935C33F6
:102440009B00F058BAE79340029A1343009A137026
:10245000019A13001F2A07D85C33039C9B00F45099
:10246000130001330193E2E7B6235B00F450DEE78B
:1024700005B0F0BDDC020020F0B50E0083B0040012
:102480000025002929D00F272068384221D1B22306
:10249000174A5B00D35898421BD31100B422520054
:1024A0008A58904215D2AC22C31AD8173840C018A7
:1024B00052008A5800118308D318032101931B7816
:1024C0009C460B00624603405B001A410A40012A09
:1024D00005D001350434AE42D6D103B0F0BD9940E9
:1024E00063461943019B1970FFF75EFFF1E7C04691
:1024F000DC020020024B1A6912681A617047C0465C
:10250000DC020020B621AE23F0B5744F49005B0019
:10251000FB587A5895B09B000191002A24D00021E5
:10252000019AB950002B52D0AC2600247600032526
:1025300002E001349C4213D2B959A2088A5C2900F6
:10254000214049000A412A40032AF2D12000FFF726
:102550002BFFAE235B00FB5801349B009C42EBD366
:10256000019ABA58002ADAD100260025002B2ED075
:1025700003961E0007E0032A00D188E0012A31D02B
:102580000135B54223D2AC22AB089C46029303230B
:102590005200BA581C0001926244107811000200E7
:1025A0002C40640022411A40022AE4D1039B002BF4
:1025B000E6D00323A3409843AE2308705B00FE5887
:1025C0005C3BFF3B01350393B600B542DBD3FE23F2
:1025D00000225B00FA50F132FF32BB5A013BBB5282
:1025E00015B0F0BDB0235B00FE58EB08F318019363
:1025F0001B781E00039307232B401E410493324295
:10260000D7D0B221490079582A018B181A001B68CB
:102610000593002B29D00023100006930793039203
:1026200006F032FBC3690590002B39D006AE3200AC
:10263000AF210398984733680193002B46D0736805
:1026400008A81E0016F03EFB002842D13100019878
:102650000DF050FFFFF74EFFB0235B00FE58EB0874
:10266000F3180193019B1B7803930122049B9A406A
:10267000039B9343019A1370AC235B00FB580193B7
:10268000019A029B944663441900187891E702234B
:10269000A3409843AE2308705B00FE58002391E7E7
:1026A000059B986B0028DDD0043000220C4906F011
:1026B000A7FC06AE0028BED04268330005990398F7
:1026C0000DF014FB33680193002BB8D16133FF3355
:1026D000C4E7099814F012FFBEE7C046DC020020F0
:1026E0007A0500000122F0B5114085B00F3002914B
:1026F000040973D0F820784B4000195A00296DD195
:102700001D00F9235B00EB5A5E425E410096002BF0
:1027100000D067E0FE23704A5B00D158A03BD5583B
:10272000A94236D2AC235B00D0583F2200230326B7
:1027300094461BE001339C4200D866E00C27174208
:102740001BD101339C4200D8BCE03027174218D17E
:1027500001339C4200D8B8E06746BA4315D1013333
:102760009C4200D8B4E00131A94212D2425C164228
:10277000E0D00C2700231742E3D030270023174274
:10278000E6D067460023BA43E9D001310023A942CD
:10279000ECD30099002921D1F8224F4B52009B5ACB
:1027A0004D4801338352FA230A005B00C150883B35
:1027B000C25014F067FE68464849091A8908FFF7B5
:1027C0005BFEFFF79FFEFE23434A5B00D158A03B10
:1027D000D5585C3BFF3B00938D42A3D800252800D1
:1027E00005B0F0BDFA233C4D5B00ED583A4E019523
:1027F000FC256D007559019EAE4200D28AE7364D28
:10280000E950883B2A52E950D3E78900CD1A6A1C67
:102810000192012B4ED04B1C03936E1C0322B30874
:10282000C01801233240520093400278023513430E
:102830000370A94216D3AC235B009C4603270226F3
:102840006046254AAB0812583000D31800923A006F
:102850002A405200904002001878013502431A7055
:10286000A942EDD2B2221C480199520085580B01B1
:10287000ED18FA235B00C25800921419039AC45051
:10288000521A12010021280016F085FA029B002B33
:10289000A5D00023B02210492B60019852008A581D
:1028A000C3080721D218012301408B4011780B4344
:1028B000137094E74B1C9A080393FE23064E5B00AB
:1028C000F250AAE789000131A0E7890002319DE7B3
:1028D000890003319AE7C046DC0200200040002056
:1028E000F0B587B00300029004920800002B00D1DD
:1028F00024E1F823964C5B00E35A00295ED0002BBC
:102900005ED16533FF33029AE358D31A0F22D917E9
:102910000A40D218131102000F321900059313094F
:102920009C46AE235B00E7584A1CBF00974200D884
:1029300009E1AC235B00E358002503930123032640
:10294000019303999308CB5C3100114049000B417E
:102950003340022B38D0002B04D1019B0135EB18FA
:102960009C4534D8019B9C4557D01A009C4532D3D6
:10297000ED18059AAC4500D98AE0D5186244AA4200
:1029800012D9AC2703267F00E159AB08CB183100E0
:102990000220294049008840010018780135014390
:1029A0001970AA42F0D1019B6246029DD21A180109
:1029B00012012818002116F0EEF902E0002B2ED0AB
:1029C0000025280007B0F0BD019B013301930132BF
:1029D0009742B6D8C6E7059913000D0065448C46AA
:1029E000AC2063441A0029000326AC464000255859
:1029F0008B08EB18350037000D406D00AF401D7897
:102A00000131BD431D709142F1D1FE2365465B004B
:102A1000E158AA088A4200D2E250029DD1E7B223CF
:102A20005B00E258029B01209A1A0F23D1170B403A
:102A30009B18B02252001B11A258D9085218072126
:102A40001940884011789D0881431170FE22520080
:102A5000A1588D4200D2A550AC277F000321BC466F
:102A6000E659725D08000F00184040008740BA43E5
:102A7000725562460133A6589D08725D0800170022
:102A8000184040000741380008400228EAD097E784
:102A9000B02707267F00E159D308C95C049B324068
:102AA0001141002B00D18BE701231940FFF71AFEDB
:102AB000051E00D184E7019B02991A0116F036F930
:102AC000F8235B00E35A002B00D07AE76533FF332D
:102AD000E358029AD31A0F22D9170A40D3181B11B0
:102AE000E159DA08891801221E40B24008789E0890
:102AF0009043FE2208705200A1588E4200D2A65088
:102B0000AC2040000321844627580195BA5D080097
:102B10000D00184040008540AA43BA556246013373
:102B2000A7589E08BA5D08001500184040000541EE
:102B3000280008400228EAD0019D42E70021FFF763
:102B4000D1FD05003DE70123002501930BE7C046B9
:102B5000DC02002010B501220C00FFF7C1FE0028A6
:102B600004D1002C02D0200006F052FE10BD10B59A
:102B70000021FFF7B7FD10BDF7B501900091FFF7F9
:102B80000BFA021E00D080E0009BFF2B03D94049C6
:102B9000404806F0E5FB404C009B2600FC36B06C3C
:102BA0001D1D00280FD0336DF16CEB188B420AD934
:102BB0006918FFF795FE071E20D10200316DB06C39
:102BC000FFF78EFEB7642300FC339B6C002B1ED1F5
:102BD0002F00802D00D2802738002600FFF7C7FF86
:102BE000FC36B06400280DD12800FFF7C0FF2F008D
:102BF000B064002806D1280006F00AFEF36C5B19C9
:102C0000F364E0E723000022FC33DF641A6523004D
:102C1000FC331A6D996CAD188E18019800991D65DA
:102C2000FFF7A8F96B4600251B783070000A70701A
:102C3000B370F01C009A019916F078F8009BF31815
:102C4000DD7063699F68DB68BB4212D37F00381D6B
:102C50008000FFF78CFFA84201D13800CCE7636900
:102C6000036062695368D26887609B184360C560DF
:102C700060616269D368591C04339B00D1609E5027
:102C800063695A68D8681218013A1000FEBDC04640
:102C900065F7010088970100DC02002010B50021D3
:102CA0000400FFF71FFD002804D1002C02D02000F3
:102CB00006F0AEFD10BD10B504001020FFF7EEFFCA
:102CC000044B5C33036063684360A368C360002304
:102CD000836010BD84A7010070B505002020FFF7B8
:102CE000DDFF05210B4B040018330360080010F0D2
:102CF0001FFEA0606B6820002361EA6862602A7C86
:102D0000A276AA689B1863616B7CE376FEF7F0FEFF
:102D1000200070BD04A80100024B1A69026018610E
:102D200000207047DC020020052170B50500080076
:102D300010F0FEFD04002900FEF71FFF200070BD0B
:102D40008368C268934203D25A1C82601878704725
:102D500001204042FBE700237F2803D8024B1B5C85
:102D60009B06DB0F1800704744F3010010B5040008
:102D7000FFF7F1FF002800D0203C200010BD002309
:102D80007F2803D8024B1B5CDB06DB0F1800704763
:102D900044F3010010B50400FFF7F1FF002800D054
:102DA0002034200010BD00237F2803D8024B1B5C79
:102DB0005B07DB0F1800704744F3010000237F28F6
:102DC00003D8034B1B5C1B07DB0F18007047C04682
:102DD00044F3010000237F2803D8034B1B5C9B07AF
:102DE000DB0F18007047C04644F3010010B50368BC
:102DF0000400002B02D04068FFF7D4F92000FFF751
:102E0000D1F910BD10B50800110002F0BBFB10BDD8
:102E100010B5026904000A2A22D1C3690133C361D3
:102E200001232362636960682361A3696361A36806
:102E300098476369A0610D2B07D1033B63619842FA
:102E400003D16068A3689847A061A369013306D1E4
:102E500063695A1C03D00A2B01D00A23A36110BD59
:102E6000036A092A02D10733023A93430133D8E7B0
:102E70000369272B14D0222B12D0752B04D01022DB
:102E800019009143622904D14269272A08D0222AD5
:102E900006D0722B06D14369622B09D000230FE0C4
:102EA00001230DE0622BF9D142690023722A07D178
:102EB00080690123272803D0223843424341DBB2F3
:102EC00001201840704710B54B00C018D2180029D7
:102ED00001D1080010BD0238023A038814881B1B78
:102EE00002D404D10139F2E701204042F2E7012087
:102EF000F0E7F0B587B0039104921D00002900D0DF
:102F00009D188168002401914168260002910121E9
:102F10008C46029A002A23D00199049A0988240435
:102F20000C43991810360591072E06DC01990231E1
:102F30000191029901390291EBE701220778A1B2D0
:102F4000174206D0FF278F433900614489B20A0A2D
:102F50009446039A002A05D06F1E3970BB4206D1F1
:102F600007B0F0BD059A6F1C29709742F8D0083E53
:102F7000240A3D00D8E710B50200816843680020AC
:102F80005B00CB189C1E8B4204D81378DB0700D55E
:102F9000404210BD2388000418432300F2E770B5B7
:102FA00005000C20FFF77AFE01212A7803780A40F9
:102FB0008B43134302229343037004002B68216860
:102FC0009808032382000B40134323606B68400082
:102FD0006360FFF763FEA0602B68A9689A0852003F
:102FE00015F0A4FE200070BD70B505000C0002298C
:102FF00000D20224A868002803D02B689B08A342B3
:1030000009D26100FFF7A6FD03232A68A40013403C
:103010001C43A8602C6070BD70B505000C00022137
:10302000FFF7E2FF2B780122002C07DA13432B7005
:10303000644200236B60002C03D170BD93432B705E
:10304000F7E76B685A1C6A60AA685B009C52240C04
:10305000F1E7F8B504001F0006AB1D780421160047
:10306000FFF7C2FF23780122002D0CD0002F0ADACF
:103070001343237000237242BB41002161601100A1
:10308000194305D1F8BD9343237032003B00F4E7A8
:1030900061681D04481C6060A06849000A52100C59
:1030A000190C05432A000B00E9E770B505000C0078
:1030B0004968FFF799FF012122782B780A408B435A
:1030C00013432B706368A8686B606368A1685A003B
:1030D00015F02CFE70BD10B5041E05D08068FFF7FA
:1030E00061F82000FFF75EF810BDF0B54B6889B0BD
:1030F00004000E001500002B02D05368002B03D1F2
:103100000023636009B0F0BD814208D10800FFF7D9
:1031100046FF0700B54200D105003E0007E000274A
:10312000824204D11000FFF73AFF050007007368E0
:103130006A6820009918FFF757FF236800219A0852
:103140005200A06815F027FEA3680393B368039AA2
:10315000069373680493AB6801936B680293049BB6
:103160005B00D1185B4207930023079A02988A18E4
:1031700000282CD0069B00200093049B9C4613E063
:1031800013881B180593009B1B881800019B1B8844
:1031900043430598181801235B429C44009B108010
:1031A0000233000C009302326346002BE8D10B007F
:1031B000002801D008808B1C039A02319B1A029AC6
:1031C0005B10013A0292019A02320192CDE76360EC
:1031D0002B783178227859400123194205D19A433E
:1031E00022703800FFF777FF8CE713432370F8E76E
:1031F000F0B5059C121B9446002227001400002FF6
:1032000011D1059B5D004219491916006546002D34
:1032100012D163465B00D218002C01D01480023218
:10322000101A4010F0BD8E5A9D5A013F761934197C
:103230008452240C0232E2E70B88013D1C193480D1
:103240000231240C0236E2E770B51D0900249542D4
:1032500017D26C000919541B0F22250013400E8849
:103260003200012D02D04A8812043243DA40013D77
:1032700092B2028002310230002DF0D153425A4105
:10328000A41A200070BD0239814202D30B88002BA2
:10329000F9D00231081A40107047F7B50025089C94
:1032A0002E0027000193121B002F0BD1640003197D
:1032B00015001F000919002D0FD152009918FFF7B2
:1032C000E2FFFEBD4B5B013F9C46019B66445B5B9E
:1032D000F61A465336140235E6E70C88013DA61966
:1032E0003E80023136140237E5E773B50C005368AF
:1032F000496806001500994206D308D89268A0686C
:10330000FFF7E1FD002802DA23002C001D002378DE
:103310002A785340DB0715D463683000591CFFF747
:1033200063FE6B68B0680093AB686268A168FFF7E2
:103330005FFF01217060337822788B430A4013438A
:10334000337073BD61683000FFF74EFE6B68B06884
:103350000093AB686268A168FFF79FFFE9E7F0B5EB
:10336000050093B0079353680C00591C0592009315
:10337000FFF73AFE059B00215B68A8685A1C5200C3
:10338000009315F008FD00236B60059B20005B682F
:10339000591C0093FFF728FE05992000FFF785FED2
:1033A000A36866680193079B9B680493079B5B680F
:1033B0000393AB680893039BB3423AD83BD3049A78
:1033C00031000198FFF77FFD002830D10123089AD2
:1033D000606013806B60059B079A1B7812785340DE
:1033E0000122134221D02B7813432B706368002BEA
:1033F0001BD00FAE3378012193439218934333705F
:1034000003230F9A494213400F9300233000109377
:103410001193FFF701FE320029002800FFF765FF36
:10342000079A21002000FFF760FF13B0F0BD0028CD
:1034300001DA0023CEE77C4A039B9B185B009C4685
:103440000022049B634418001B8800921AB2002AD1
:1034500062DA0021019B7600F15210266368019A1E
:1034600001336360009BF31A02936368019E5F005F
:10347000F719BA4256D3028800998A400992039AF2
:10348000012A0AD91021049A00986244023A12884B
:10349000091ACA40099911430991634A01999A1876
:1034A00052008A180292039A9B1A5F4A6B609B181B
:1034B000089A5B00D3180A93022362465B429B1A68
:1034C0000D936368039A9A4237D310210026564A17
:1034D0009B18019A5B00D318009A891A019A9A42A4
:1034E00000D893E06B68002B07D04F4A08999A18D0
:1034F0005200525A002A00D192E06368002B00D19A
:1035000069E7494A01999A185200525A002A00D094
:1035100061E7013B6360F0E7009A5B0001329BB218
:1035200092B292E71388009E1F00B7403943118082
:1035300002990232CB4099B297E7029B0999023B6C
:103540000B93029B18880B9B00041B88184315F0F3
:1035500033FD029A0D9B9446002263440C9319009C
:10356000049B06909C461000029B8B4208D81B8847
:10357000D21A002A3ED000210C9F049B0E002FE09F
:103580006346009E1B88000CB3401843069B86B21E
:103590005E430B889E4202D29F1B97420DD8D21ADF
:1035A000B6187342320CB6B2771EBE410B80921928
:1035B0006346023302319C46D6E7BA1A0A800022DB
:1035C000F6E7300C8446009E18880233B040664609
:1035D000064338884118B0B241183980090C0237C7
:1035E0000298B842EDD80123521A06995B42CB18D3
:1035F0000693BEE76A460A9B128B023B5A800A93E7
:103600006368013B63600B9B02935AE71A88009F33
:10361000100038418A403043188096B2023B5DE783
:10362000013B6B605EE7C046FFFFFF7FF0B587B0F0
:10363000039205910D9A03990500521A0CA9097875
:1036400020200C00844339D030293BD00CA90291B2
:103650000121802401911C4037D0D40FA41864109C
:10366000171B002C38DD2600019B0493B34200DDBC
:1036700004966B68049A029928689847049BF61A86
:10368000002EF1DC039B002B06D01A0005996B6815
:1036900028689847039BE418002F0CDDE419019E6D
:1036A000BE4200DD3E003200029928686B689847F0
:1036B000BF1B002FF3DC200007B0F0BD07490291CB
:1036C0001021C6E705491131F9E701271F4001D153
:1036D0001400C6E71700D5E70024D3E758A8010077
:1036E000F0B593B0069318AB20CB04901B780F0075
:1036F00016000793CB070BD48B0703D1854B0A68C1
:103700009A4205D0380005F08DFA012740000743A2
:1037100081231D4209D1079B302B06D11A9B1B9A8E
:10372000934200DA1A9200231B93380003F0E2FC64
:103730000DAA1300002806DBAB070FD52B2313704F
:10374000063B04AA9B18EA0616D5022E0DD130229C
:103750001A70069A01325A7002330DE013006A079C
:10376000F1D520221A702523EBE7082E3CD1302218
:103770001A70AA0535D4013300220DA91A705B1AFC
:103780000593AB0600D52C320EAB0C931023002111
:103790000B931B9B0A91012B01DD40231D4304ABBE
:1037A000D9756B4640241B7E2C400392029322D095
:1037B0003B00019100960AAA0BA90CA804F09AF903
:1037C000037807002D2B2DD104AAD3750A9B1B9AD1
:1037D000013B01370A93012A00DD95E00026340001
:1037E0004AE0069A0E32B6E7102EC5D130221A7082
:1037F000069A1732AFE70DAB019300963B000AAA79
:103800000BA90CA804F076F91B9B07002600012BDE
:1038100032DD0A9B1B9C9C4215DA1C0013E000263B
:10382000340019E01B9B012BD8DD0A9B1B9C9C429A
:1038300000DA1C00172304AA9B181B78002B00D069
:103840000134059BE4181A9BA342E8DD01261C1BEA
:103850002E4001D02600002401239D432F330793DF
:10386000002C09D0103B0093002301941A002A4930
:103870000498FFF7DBFE04006B0621D5172104AB8B
:10388000C9180B78002B0AD0002301220093019263
:103890000498FFF7CBFE1A9B2418013B1A93059B53
:1038A000002B0DD0012301930023059A00930DA94D
:1038B0000498FFF7BBFE1A9B059A24189B1A1A93CB
:1038C0001B9B012B00DD1A931A9B0A9A0193079BFD
:1038D0003900009304982B00FFF7A8FE2418002E4F
:1038E00009D020230093002301961A000A49049866
:1038F000FFF79CFE24180C980EAB984201D0FEF7FF
:1039000051FC200013B0F0BD1B9C9C4298DA1C00B7
:1039100096E7C046C8B50100C22D0200F0B58DB0D3
:10392000039314AB1B780C0004930F2304A902909B
:103930005B18002A2FD100221A70002C30D13022BF
:1039400008ABDA731F3404ABE41840250F21139B36
:103950001D4004ABC9180B78002D4BD00025AB429D
:103960000BD00122049B019200930298139BFFF756
:103970005DFE0500159B013B15930CAB1A1B159BB7
:1039800021000193049B02980093139BFFF74EFEC6
:1039900028180DB0F0BD002C20DA2D2264421A70D8
:1039A0000F25129B08AF0A3B05932000039915F0E1
:1039B00089FB0E002000039915F0FEFA3300040085
:1039C0003033092E01DD059B9B197A19EB55002D2B
:1039D0000ED0013D002CE8D11400B6E7139A9207EF
:1039E00001D52B22A8E7139A5207A4D52022A3E7DA
:1039F0003C00AAE7002BC0D008AA9442BDD9013CE4
:103A00002370BAE770B5050008000E0015F002FA41
:103A1000041E04D002006B6831002868984720001B
:103A200070BD70B504001500626808008A4203D9B1
:103A300049198A4201D8606070BDA368121A521BEE
:103A40005918181815F095F963685D1B6560F3E760
:103A500070B543680500C9180368994210D9037B03
:103A6000DB0703D50021074805F07AFC0723103156
:103A70009943083180680C00FFF76CF82C60A8604F
:103A800070BDC0468897010070B504000E00150097
:103A90001100FFF7DDFFA3686268310098182A0063
:103AA00015F067F963685D19656070BD70B5050054
:103AB00008000C0015F0AEF9210002002800FFF705
:103AC000E3FF70BD70B504000D000121FFF7C0FFDA
:103AD0006368A268591C6160D55470BD70B5037BE2
:103AE00004000D00DB0703D50021074805F038FC72
:103AF00003688068C918FFF72DF82368A060ED18E7
:103B00002560C01870BDC0468897010010B50368D5
:103B100042680400934202D10121FFF7DFFF002336
:103B2000A26861685354A06810BD10B5037B0400FF
:103B3000DB0702D48068FEF735FB0023A36010BDCD
:103B400010B50400002900D1013100232160636019
:103B50000800FFF7A3F80122237BA060934323739F
:103B600010BD70B50D0004000131FFF7E9FF65607D
:103B700070BDF0B50024334D04600C6014601C600F
:103B800085B06C69FC3500910195002C02D02E4D5A
:103B9000AC4205D1126819688A181A6005B0F0BDE8
:103BA00001684D1C009905600968E5684D19009988
:103BB0000D602500E16810358E00A9198C46654519
:103BC00038D30F2500262540AC46B5422DD10199AA
:103BD00066468D6EAC4228D3C96E02918C4224D2C7
:103BE0000F21661BF5170D400199AD19C96D2D11F7
:103BF000AE088F5D03262E407600374102910321E7
:103C000066460F40012F10D16F1C791B039102995A
:103C1000BE088E5D0321394049000E410321013762
:103C20000E40022EF1D003990E0119688E191E6004
:103C30002468AAE740CD1168B6780F1DF619166002
:103C4000BDE7C046DC02002074A9010010B50C00DD
:103C5000FEF782F983780330236010BDF0B50600CB
:103C6000140000278DB00D002B78002B1ED1A94227
:103C700008D26B1A05931A003068736898472900B8
:103C8000059BFF180B78002B00D10BE12023089334
:103C90000023059330334D1C9C46082104202B78CB
:103CA000002B07D10793013B069351E0252BDED073
:103CB0000135D9E72D2B05D12C3B059A1A430592E6
:103CC0000135ECE72B2B01D1293BF6E7202B03D163
:103CD000059B03430593F3E7212B02D1059B0B437F
:103CE000F8E7302B1DD000230A2107932B781A0008
:103CF000303A092A1CD92E2B45D16A786B1C2A2A06
:103D00001DD01D0000230A2106932B781A00303A9B
:103D1000092A1DD8069A01354A43D318303B069329
:103D2000F3E74022059B1343059363460893C7E7D7
:103D3000079A01354A43D318303B0793D6E72368E7
:103D400002350693DB43069ADB171A4006920434C9
:103D50002B786C3B594259416D182A78002A00D1C2
:103D6000A0E0642A00D180E020D8582A3CD00DD8A9
:103D7000502A00D18AE001222900306873689847F0
:103D80000137099454E001235B428DE7622A3FD05A
:103D9000632AF0D1231D099323680BA90B70079B9D
:103DA00001220193089B0093059B3DE0732A4AD0B2
:103DB00016D8702A6AD0712ADDD1231D0BA920687C
:103DC0000993FFF743FF069B0100013301D10B9BD1
:103DD0000693079B069A0193089B0093059B23E09B
:103DE000752A01D0782AC6D10621231D0993531CB8
:103DF0000B400A31CB1A0799039108990291059952
:103E000001910F218A430F3AD2B20092002238E08A
:103E1000231D09932368002B0DD00422079B2349FF
:103E20000193089B0093059B3000FFF7FFFB3F18B1
:103E3000691C099C17E7079B05220193089B1C49F5
:103E40000093059BF0E7231D0993069B246801332B
:103E500003D1200014F0DEFF0690079B069A019321
:103E6000089B21000093059BDEE7231D0993079B18
:103E700001220393089B0293059B01936123009306
:103E8000573B21683000FFF749FDD0E7231D099318
:103E9000079B0393089B0293059B01936123009367
:103EA000513BB3E738000DB0F0BDC04628F8010023
:103EB0002DF801000EB403B503AA02CA0192FFF760
:103EC000CDFE02B008BC03B0184710B5FEF744F8A9
:103ED000037840780002184310BDC0460F23F0B5A8
:103EE0008E6885B004000D0033400E2B06D0002EE6
:103EF0002FD0B3072DD13379652B1CD10296002624
:103F000003AA652102A812F0BCF80021039B8000DF
:103F10003D4A1818984214D13C4BEA689A4233D172
:103F2000636A1F78002F16D0394A2900200010F04C
:103F300041FD05B0F0BD622B0BD1B3680293F6686A
:103F4000DEE71F68974202D101310433E2E7033113
:103F5000FBE70021E0E7A06A11F077F8A06A0521ED
:103F600011F07EF93A00A06A012111F023F9200036
:103F700003AA3100283011F0A9F901216922494230
:103F8000A06A11F016F8D4E7A06A11F05EF82800D4
:103F900002AA0C306A2112F074F800250700BD4215
:103FA00011D100222900A06A11F004F9200031008B
:103FB00003AA283011F08AF90026B5420DD1A06A73
:103FC00011F030F8B5E7029AAB009B58A06A9968E7
:103FD0000135090911F044F9E1E7029AB3009F584D
:103FE0000121BB681C221B09A06A019311F0C0F8D3
:103FF000F968002905D10199200010F049FC01362B
:10400000DBE70909F8E7C046BE0500000E04000022
:1040100033F8010010B5034B6B22896810F04AFC9D
:1040200010BDC0463D40000010B5034B9D2289687D
:1040300010F040FC10BDC0460549000037B5040033
:104040000D00806A002111F000F8A06A0E2111F025
:1040500041F82000290001AA283011F037F9019910
:10406000200010F015FC37BD70B58C680500002CE1
:1040700005D164222100A86A10F09BFF70BDA30740
:104080000DD123795E2B0AD1A1680EF014FFE168EF
:1040900028000EF010FF662202214942EBE72100C2
:1040A00028000EF008FF65220121F6E710B5040094
:1040B00089680EF000FFA06A10F0B4FF10BD10B5C3
:1040C000436A04001B78072B03D0094A10F072FCE6
:1040D00010BD8968002907D10E31806A10F0FAFFFF
:1040E000A06A0CF006FCF3E70EF0E5FEF8E7C04628
:1040F00050F80100F7B50B790700092B1AD1068B90
:104100001E4B9E4203D11E4A380010F053FCBC8B5C
:10411000F98BBD6A631A019334B21A4F002B1CD17C
:10412000002C09DB330042223B400021280010F024
:1041300002FFF7BD468BE3E72800592110F0EAFFA4
:104140002800592110F0E6FF2800592110F0E2FF65
:104150005921280010F0DEFFE4E7330028003B403F
:104160004022002110F0E7FEE40F019BE4011C4314
:10417000E1B2280010F0CEFFDBE7C046FFFF0000F1
:104180006AF80100FF7FFFFF0F2370B50B400400AA
:10419000022B11D00B79492B01D04F2B02D10123D7
:1041A000A37170BD4A2BFCD0502BFAD08D68482BE0
:1041B0000DD10E69002E0CD1A379002BF1D1E38A29
:1041C000002BEED0194A200010F0F4FBE9E7CE688E
:1041D000F0E7A379002B21D0A38A01339BB2A382FD
:1041E000012B0BD1E18A002914D00022A06A10F023
:1041F000E1FF02220021A06A10F0DCFF3100200064
:104200000EF059FEA06A290911F02AF8A06A10F0F0
:10421000DBFEC6E7A06A10F012FFEAE7E38A31008E
:104220000133E38220000EF046FEBAE78AF801006F
:10423000F0B585B006000C0002920393002B03DD5D
:1042400008230A8B13430B836B461B892384736AF1
:104250001B78002B07D000273D00726A538D9F42C8
:104260000DDB002D35D1029B039AB06A13432BD18D
:1042700032220121236910F03DFF05B0F0BDD26A62
:10428000FB00D31801931B78043B012B05D80023B6
:104290000093009A638D9A4201DB0137DDE7009BB2
:1042A000E26ADB00D3181A78052A0AD1019A5B6802
:1042B0005168994205D152880023B06A10F0BDFFC1
:1042C0000135009B0133E3E7012123693322494291
:1042D000D1E7029B039AB66A1343EFB2002B0BD1CE
:1042E000012120222369491B300010F003FF39000F
:1042F000300010F00FFFC0E7E94323692122F3E704
:1043000070B50E00417904001300012903D1320079
:1043100010F0EEFA706154220121A06A10F049FEFB
:10432000002375691A0029002000FFF781FFE98A40
:10433000A06A10F095FFF168002906D003230B4016
:1043400003D10A79A32A00D11900200002230022F8
:1043500011F0E9FCE88A70BDF7B50F0011001A00F2
:10436000C38A8579868A019300230400837183823E
:10437000C382104B10F09EFAA368002B18D1E18A7B
:10438000002908D0A28A002A05D1A06A10F012FFE5
:10439000A06A10F054FEA38AE28A39002000FFF7D9
:1043A00047FF6B1E9D416B469B88A571A682E382E9
:1043B000F7BDC0468941000070B513004279050081
:1043C0000C00012A04D10A00072110F091FAA06123
:1043D000A669280031004623E268FFF7BDFFF08A96
:1043E00070BD10B5436A04005A8BFFF7E5FF01006A
:1043F000200010F04DFA10BDF0B50400080089B09F
:104400000491083006AA422111F03BFE0025636AA0
:1044100005905F8B0195059B9D420AD1049BD9684D
:104420000B79032B39D13A002000FFF7C5FF0700B5
:1044300041E0069AAB009B586C21180007AA08308F
:10444000029311F01EFE079B039019680A09732A54
:1044500049D1022807D0264A200010F0ABFA019B70
:104460000133019317E059680B09412BF3D1012760
:10447000F5E7079AB3009958A06A09090CF024FAE5
:104480000136039B9E42F4D3029BD968002902D0D7
:1044900020000EF010FD0135BDE7442B16D18E68CB
:1044A0003A0031002000FFF787FF01230700B269BF
:1044B000118B0B4313830026019BEB1A9E420AD3F8
:1044C0003900200010F0E4F909B0F0BD3A002000F6
:1044D000FFF716FFABE7002301211A00A06A0CF0DA
:1044E00012FA0136E8E720000EF0E5FC0126C8E7E5
:1044F000B8F80100F7B5040003200D0016000142D2
:104500000FD00F230B40022B16D109092000002ADF
:1045100001D0022A02D110F0BBF9F7BD10F08FFADA
:10452000FBE74A68FF2713003B402D2B77D009D8C3
:10453000062B0BD02C2B10D0534A2900200010F052
:1045400039FAEAE72E2B7CD09D2BF5D1002EF3D142
:104550002B00120A083300217BE0022E03D0896869
:1045600020000EF0A8FCEB680093002BE4D003239E
:10457000009A1340E0D117005268D1B28E2909D1B8
:10458000120A01921F00022E17D1019B009A0133DB
:104590009B009F583B79312B26D1022E12D1A06A65
:1045A00010F034FD5622032119E0009ABB00D31805
:1045B000996820000EF07FFC0137019B013B9F4270
:1045C000F3DBE2E7B96820000EF075FC012EE9D1BB
:1045D00058220221A06A10F0ECFC55220121494228
:1045E000A06A10F0E6FC98E7322BA5D1012E08D185
:1045F000A06A10F01EFDB968A06A09090CF064F900
:104600008BE7022E02D1A06A10F006FD0221BB68E2
:1046100018221B094942A06A10F0AAFD7DE78868AC
:10462000002889D0002E87D1C368002B27D0032211
:104630001A4024D15968CEB2952E18D11300816842
:1046400007E0002E00D077E78968002905D10B002C
:104650000A00200000F01AF85FE7014204D14B681D
:1046600008001F40922FDFD000231A00F1E7962E9A
:1046700002D108330A0AE2E7AC2E00D15CE703005E
:104680000222083367E7C046D6F80100F0B589B0CA
:1046900002920A001F00531E9A4105000E1E079247
:1046A00003923BD003240C4038D10B79222B35D117
:1046B000029B31221B020299806A10F059FD029B75
:1046C000364A013B0493029B05979B181B020693F5
:1046D000079B0193049B013323D1029A079B9446C5
:1046E00063440193631C48D1019B3022591EA86A80
:1046F00010F03EFD002E4AD1039B019A93423AD01E
:10470000039B9C4246D100223B6899682800FFF732
:10471000F1FE039B043701330393EDE70124644268
:10472000CDE7059B1968002913D00323194210D146
:10473000FF224B681340222B0BD1631C17D1019A27
:10474000049BA86A9918069B1343312210F010FDB0
:10475000019C019B01330193059B04330593049B4A
:10476000013B0493069B013BFF3B0693B2E70C4AD7
:10477000280010F01FF909B0F0BD002EBCD0002CAD
:1047800005D12200B1682800FFF7B4FEB4E700228B
:104790003100F8E700223968B8E7C046FFFFFF00A4
:1047A000F1F80100F0B507000C001600012585B0F6
:1047B0000193200011F0AFFC002807D0002E03D198
:1047C0000199B86A10F0D4FB05B0F0BD200011F0DB
:1047D00095FC002802D0002EF6D0F1E7002C4AD03C
:1047E00003231C4247D163681A0A0292FF22134036
:1047F0001E2B2DD1002E2FD100253B6903930133B1
:104800003B61029B013B9D420DDB029D380001355F
:10481000AD002959019B3200FFF7C4FF0399B86A24
:1048200010F079FBD0E70122A9006118039B7240C8
:1048300089683800FFF7B6FF0135E2E7A168019B00
:1048400032003800FFF7AEFF0434AC42F6D1BBE7CC
:104850001F2B05D1002ECFD1029B9D006519F4E7D7
:10486000202B02D16E40A468A3E72D2B03D1A368AF
:10487000002BB0D1A2E7380021000EF01CFBB86A73
:10488000019B4322002E00D144220121494210F015
:1048900052FB99E7F7B5002406001700A14202D0A9
:1048A0000EF009FB0134002F07D000257B681B0A9E
:1048B0000193019B9D4206DBE418B06A00222100AF
:1048C00010F078FCF7BDAB00FB18996830000EF0D3
:1048D000F2FA0135EDE710B50A000021FFF7DAFF23
:1048E00010BD10B54379012B03D1406A10F0E0FCF4
:1048F00010BD0B00426A0249806A10F0B8FCF7E76D
:104900007CA80100F7B505000C000F232340022B03
:1049100004D121092800FFF7E4FFF7BD002C7DD06A
:1049200003231C427AD1FF26636833402C2B49D1E4
:10493000A16828000EF0BFFAE768002F6ED00322AE
:104940003A406BD179683B000E408E2E0AD116009A
:104950000B0A0193019B013B9E4218DB019B013333
:104960009B00DB591A79312A19D1996828000EF079
:10497000A2FAAC6A200010F062FB200010F046FBA7
:10498000032156224942200010F013FBC5E7B30073
:10499000FB18996828000EF08EFA0136DAE7322A01
:1049A0003CD1AC6A9D68200010F049FB200010F05B
:1049B00033FB02212D092B0018224942200010F060
:1049C000D7FBAAE72D2B29D1A468002C26D0E768B5
:1049D000002F1DD02A3B1F421AD17B681E40952E06
:1049E00001D1A46891E7962E10D1A16828001E0A73
:1049F0000024FFF787FFB44200DB8EE7A300FB181B
:104A000099682800FFF77EFF0134F4E7AC2E05D04B
:104A1000A1682800FFF776FFE46876E7024A2100E4
:104A200028000FF0C7FF78E70BF9010010B500244C
:104A3000064B1B789C4200DB10BD054BA200D158F1
:104A4000002901D0D35898470134F1E76C000020C9
:104A50007000002070B51F4C1F4D636C002B0AD0F6
:104A6000002363641D4B1B689847A823DB00EA58AA
:104A700000018018E850A36C002B09D00023A36428
:104A8000164B5B689847164B0001EA588018E850AF
:104A9000E36C002B0AD00023E364104B9B6898471B
:104AA000A923DB00EA5800018018E850236D002B91
:104AB0000ED000230B4A2365AB580B495B18AB5053
:104AC0000A4A1368063313608022094B52035A6066
:104AD00070BDC046FC9000400090004000000020E7
:104AE000440500004C05000070170000AC010020D8
:104AF000FCE100E0012040427047F0B51A4EA027CB
:104B00003300FC339A6B194BFF051B78991C890005
:104B1000885A5418518841438912E078002815D0EA
:104B2000A07801248440A1200133C0003C50DBB2B6
:104B3000981C80001418805A844665465088684343
:104B40008012401AE9D0094A1370F0BD084B516831
:104B5000F9503100FC31CB6B002B03D08B631A0072
:104B60000300C8631900E3E7DC02002064000020B2
:104B70000C050000802340109B05C018C02349107D
:104B8000401A80001B064008C018012318437047D4
:104B900070B5114D114CEA682B6966785343696909
:104BA0009B195B1818001D21C84101006861022093
:104BB000084328611E20C341534001227240180A55
:104BC0004A404240880CEB60D2B248405B016270C0
:104BD00058405200504070BD00000020640000208A
:104BE00070B50124050022002B0023409D4205D80A
:104BF000FFF7CEFF20408542FAD970BD6400144310
:104C0000F2E770B50400881C80000D00FEF746F83E
:104C100005702378AB4200D92B00082202339B0099
:104C20009A4200D170BDA15881500432F8E710B506
:104C30004A680249FFF73EF910BDC04623F901005A
:104C400010B5052804D1074A53680133536010BDDD
:104C50000028FCD10448054B0268D158213112F0DC
:104C600037FDF4E764000020180000200405000070
:104C7000F0B50D0087B0022836D1012705A9686874
:104C800006F096FF7F423E00059BC218824212D179
:104C9000286805A906F08CFF73427341DBB20293CA
:104CA0007C427C41059DE3B201900393782D1FD98E
:104CB000022014F001FB0378722B01D0772B06D170
:104CC000711C0ED1723B5E425E410130DEE7622B09
:104CD00001D0742B05D1791C03D1743B5F425F4135
:104CE000F3E71D4804F0FCFB01277F423E00CFE7BD
:104CF0002900019805F0FEF80400002E28D1FF28B5
:104D000001D005F0E1F805F069F90400FF2801D1B0
:104D10001C20CEE7C0010700104EFE213368181892
:104D200013F0A6FA3368E9B2D819023013F0A0FAEA
:104D300030682A00C0190330019913F02DFA039A44
:104D40000299200005F0A0F80028B1D007B0F0BD0E
:104D5000FF28F4D1ACE7C0462CF90100B0010020D7
:104D600070B545680400954200D915002A002068F6
:104D700013F0DCFF23685B19236063685D1B6560CB
:104D800070BD10B50400080003F04CFF641020183B
:104D9000024C400020400124204310BDFEFFFF7F55
:104DA00070B50D0003F03EFF0400280003F03AFF49
:104DB000844202DD002004F093FB001B0130FFF76A
:104DC0000FFF201813F071FF70BDF8B507000868D9
:104DD0000D0003F027FF0600012F06D1002826DD75
:104DE000FFF7FEFE13F061FFF8BD686803F01AFFDD
:104DF000841B022F06D1864219DA2000FFF7F0FE4D
:104E00008019EFE7A86803F00DFF051E0ADD2018E2
:104E10000138290014F05AF9002808DDFFF7E0FEF8
:104E20006843EDE7002802D020180130F1E70020A8
:104E300004F056FB10B5040004F01DFA03F0F2FE76
:104E4000002803DC0021064804F08AFAFFF7C8FEB8
:104E500013F02BFF04220100200009F0BBFA10BD63
:104E600084A8010010B503681B6B5B68002B01D19F
:104E700014F018FA9847002802D0404214F01CFAA7
:104E8000062010BD10B503681B6B1B68002B01D1F9
:104E900014F008FA9847002802D0404214F00CFAA7
:104EA000062010BD10B503F0D9FE4522044B1A614F
:104EB000A432DA6000225861024B06205A7010BDFD
:104EC000000000206400002010B503F0ABFE0400D9
:104ED000202801DC002802D1002004F001FBFFF7AC
:104EE00057FE20220123121B5B42D340184013F0CF
:104EF000B9FE10BDF7B507000D000C008B1801932B
:104F0000019B661B9C4208D02178380011F0B4FF49
:104F1000002804DB01340028F2D03000FEBD06007A
:104F2000FBE7F7B5551E07000E002C000193291B67
:104F30007118631C01D100200CE00022019B9342F8
:104F400002D062426241D2B2380011F065FF013CEA
:104F50000028ECD0FEBD30B50400236885B01D6B81
:104F60000800EB68002B01D114F09CF9012201A983
:104F700009F001F8EB68029A01992000984700288F
:104F800002DA404214F098F901234000184305B0BA
:104F900030BDF0B50D0000271C4B91B008AC783344
:104FA0000431013801940093042304F0F5F9A0685A
:104FB00005A9012208F0DFFF02AB198B059B2868C9
:104FC0000393E368069DDBB2083B66681BB204AC42
:104FD000002B10DA0222039B0D940C970E950F9371
:104FE00003681B6B00921C690CABA047002809DA10
:104FF000404214F061F93200DA40083BE2551BB23E
:105000000137E5E7062011B0F0BDC04684A80100D5
:10501000F0B50600002485B0083B0F001BB203A9C1
:10502000002B15DA00230A0000933900230030001A
:1050300011F0CCFE01230500009384420FD0002321
:1050400039001A00300011F0C1FE280005B0F0BD93
:105050001000D840083B08551BB20134E0E70B9B19
:105060000A9A3900300011F0C4FE0500EDE730B5B2
:10507000114B8BB006AC78330D000138043100932E
:105080000194042304F088F9022203A9A06808F01F
:1050900072FF6A46118B049A237B0192039A286857
:1050A00000926268FFF7B4FF002802DA404214F071
:1050B00003F906200BB030BD84A8010030B5154BB4
:1050C0008DB008AC78330D000138043100930194A1
:1050D000042304F061F9A06803F0A4FD010004A812
:1050E000FEF73FFD02AA118B059A237B0192069AD7
:1050F0002868009203926268FFF78AFF002802DAAC
:10510000404214F0D9F804A9034806F002FE0DB09D
:1051100030BDC04684A8010078BA0100F0B5070090
:1051200087B048680C000E6803F07CFD0122050082
:1051300003A9A06808F01FFF0120032F02D0E06838
:1051400003F0D6FD0090A9B2049B039A300011F041
:105150003DFE002802DA404214F0AEF80123400080
:10516000184307B0F0BDF0B5070087B048680C00E1
:105170000E6803F057FD0222050003A9A06808F09D
:10518000FAFE0120032F02D0E06803F0B1FD009089
:10519000A9B2049B039A300011F02BFE002802DA1A
:1051A000404214F089F8062007B0F0BDF0B50700C2
:1051B00087B048680C000E6803F034FD0500A06855
:1051C00003F030FD010002A8FEF7CBFC0120032F05
:1051D00002D0E06803F08CFD0090A9B2039B049A12
:1051E000300011F006FE002802DA404214F064F8A4
:1051F00002A9024806F08DFD07B0F0BD78BA0100A3
:10520000F0B50D6885B02B6807001E6B0C00B36805
:10521000002B01D114F046F8022201A9606808F0C1
:10522000AAFE0123022F03D0A06803F061FD030052
:10523000B468029A01992800A047002802D0404291
:1052400014F03AF8062005B0F0BDF0B58BB002AF0F
:10525000050048680C000E6803F0E4FC0C23FA1803
:10526000043BF9183860C918A06804F055F8012308
:105270007B60032D03D0E06803F03AFD78603B6962
:10528000002B00D101336A46DB000833D31A9D4658
:10529000002402AD3B695A1E3A61002B18D1002C44
:1052A00002D12C606C600134336839881B6B30008C
:1052B0001B699C467B685A1E93415B000093220049
:1052C0002B006446A047002818DA404213F0F4FF90
:1052D00008210C237918C918FB680122186808F006
:1052E0004AFEBA69002A05D0E300EB181A607A6911
:1052F00001345A60FB680433FB60CBE70123BD46F1
:105300004000184309B0F0BDF7B50700002009F0D0
:1053100085FE0824050001260023A1B200961A008C
:10532000380011F053FD002804D1610031432800FA
:1053300013F078FA0134782CEED12800FEBDF7B5D1
:105340000191032824D8144B80001B189F69C223A5
:10535000124D9B00EF50012344192364A8230F2111
:105360000F4EDB009C46E358AE59921BD218D31760
:105370000B409A1801990B4B1211C150C1239B008D
:10538000EF5063460020013212019619E650FEBD2F
:1053900001204042FBE7C04604A901000090004004
:1053A0004C05000000000020F7B5444A07000B0040
:1053B000914200D913008022D200D21A019272B613
:1053C00000213F4AFC32D46BD16362B68C4200D1DB
:1053D000946B0126BE406268324207D13A00A02198
:1053E0000320C132FF329200C905505000252178B8
:1053F0008D4224DB002B21D001312000FFF701FC7E
:105400006A46636892881E434660237802339B0095
:105410001A520122237802339B00C3189F7023780D
:1054200002339B00C318DA7001216388021D438098
:10543000037899421CDB224BFC33D863F7BDAA00EA
:10544000A218927A97422CD00135D1E70139200079
:10545000FFF7D7FB6368B343436023785A1EAA4221
:10546000E2DD01339B0002351B59AD002B50DBE719
:105470001700D37A1489967A01934B1EBD88A542F2
:1054800004D97D68043FFD60013BF7D203339B00E4
:10549000C3181C806C4624799E70DC700131043284
:1054A000C6E7002BD2D02000FFF7ABFB63680235C4
:1054B00043606B469B88AD002B52B5E7FF030000AD
:1054C000DC020020421E0F4BFF3A70B59A4216D8FC
:1054D000061172B60C4D00222B00FC33DC6BDA6334
:1054E00062B6944200D19C6B21782000FFF789FBC3
:1054F0006368FC3543604680E863002070BD01208E
:105500004042FBE740410F00DC020020002373B55E
:105510000120A1251E000A4A0A490193ED001360EB
:10552000086001A81468002CFCD016604C591C546B
:105530000133042BF6D10122034B1A60019876BD8A
:1055400000D1004000D0004004D00040F82110B548
:105550000A4B49005A5A01325A52002204315A5019
:10556000FC331A6711F08EFF68460549091A89084D
:10557000FCF782FFFCF7C6FF10BDC046DC0200202E
:105580000040002070B50B4B0400FC331E6B451827
:10559000002E0CD170BD23780A2B03D10D213000D1
:1055A00003F068FA2178300003F064FA0134A54270
:1055B000F1D8EFE7DC02002070B5084B0400FC33A3
:1055C0001E6B4518002E05D170BD2178300003F008
:1055D00051FA0134A542F8D8F6E7C046DC020020B3
:1055E00010B5040013F016FC01002000FFF7E4FFE3
:1055F00010BD70B5144CFC34236B002B1FD09B687E
:1056000019001A001D004C310888023909880C3233
:105610000A35884213D018000E30D18FC08F8842CF
:105620000AD0586C4B1C9BB2D387405CE98F9942DF
:1056300001D80023D38770BD01204042FBE7012041
:1056400003F000FE30BFD7E7DC02002030B5114B7D
:10565000C22202201B6892001C0098500E4AFC34A3
:1056600051680E4A9A58A468002C04D000240C4DAE
:10567000954264410919C124A4001851094B100C2A
:1056800092B258435343C0015B0AC018064B5943BA
:10569000401830BD18000020640000200405000000
:1056A000FFFF7F00093D00000080841E10B5FFF75A
:1056B000CDFF034B400018400123184310BDC046E6
:1056C000FEFFFF7F70B503F0ADFA041E07DDFFF7A4
:1056D000BDFF0500FFF7BAFF401B8442FAD8062041
:1056E00070BDC221022230B50E4B89001B685A5092
:1056F0000D494C680D495D581900FC318968002935
:1057000004D000210A48A84249416418C1218900F7
:105710005A507D20FA236843DB026343000BC01814
:1057200030BDC046180000206400002004050000C1
:10573000FFFF7F0010B5FFF7D4FF034B4000184078
:105740000123184310BDC046FEFFFF7F70B503F074
:1057500069FA041E07DDFFF7C4FF0500FFF7C1FF6C
:10576000401B844201D8062070BD012003F06AFD71
:1057700030BFF3E7704730B50D0011000B4A85B01C
:1057800002AC0290019268461A0003950094FEF75D
:1057900065FA002D05D062682368002A03D1013B19
:1057A0001A7005B030BD0022FAE7C046614D000016
:1057B0000CB407B504AB04CB0193FFF7DCFF03B0D7
:1057C00008BC02B0184713B5040013F023FB010016
:1057D0002000FFF7D7FE6B46D81D0A230121037076
:1057E000FFF7D0FE012016BD13B56B46DC1DD87146
:1057F00001212000FFF7C6FE207816BD10B50A0073
:1058000001000248FEF72AFA10BDC04664F4010008
:105810000FB407B504AA02CA03480192FEF71EFAA4
:1058200003B008BC04B0184764F4010010B50400CC
:1058300001000348FFF7ECFF200011F05FFEFEE7D8
:1058400055F90100027AA02311000120C131FF3176
:10585000DB058900C958014204D004495B58D34094
:1058600018407047A221C900F8E7C04604050000AF
:105870000123027AA0219340A122C905D2008B50B6
:1058800070470123027AA0219340024AC9058B5038
:105890007047C0460C05000010B54B6B8A6A9342F6
:1058A00009D24A6AD25C0E4BC2504B6B01334B6338
:1058B0000123180010BD0B002C331B78002B03D0E4
:1058C0000123C3610023F4E70C6A0122640603D5B7
:1058D0002D31C2610A70ECE742611300E9E7C0466E
:1058E0001C0500000122094B10B51A600022084B6C
:1058F0001A60A123074ADB00D058830501D5064B67
:105900001843064B1B68984710BDC04604C00040B2
:1059100000C1004000C0004000FCFFFF90010020DB
:1059200010B5024B1B68984710BDC046CC02002042
:1059300010B5024B1B68984710BDC046D40200202A
:105940007FB5A020224B234AD968234CC0000029F0
:105950000FD1C22511600122AD0062512150A12159
:1059600001A80270C900615881801A751B689847A8
:105970001FE0002515602550A1205A8AC000265836
:10598000500046520132198A92B25A828A4214D287
:105990009A681568002D0DD15A689A60986804308D
:1059A00011F090FFA0220123D200A350002D00D0BF
:1059B00023607FBD9D600125F0E7C22001228000A9
:1059C0002250DC6801A8057044600181CDE7C04623
:1059D000FC0100200071004000700040C12330B580
:1059E000514C9B00E25885B0504D920552D5AA6AA1
:1059F000002A4FD000238122AB62C22392009B0079
:105A0000E2504B4B1A0029321278002A01D10132A0
:105A10006260022269460A709021C9006258684695
:105A2000625003929A690292DA68019200229A61A6
:105A3000DA6106CB90472B6A002B13D03C4B596997
:105A40001A6A914261D91A0028321278D2B2002A19
:105A50005BD12A621A6A9968895C1A6A01321A62F1
:105A6000344BE150AB6C002B12D00023AB64304BB5
:105A70001A0029321278002A01D0012222609A6984
:105A8000002A05D00022586A9A61D96811F062FE96
:105A900005B030BDE3585B07CDD5EB68002BCAD00D
:105AA000A322234BD2009969002913D1E960A2589F
:105AB0005A6A99699142BED1DA69002A14D09A6172
:105AC0001A69D968DA600022586ADA615A6211F0FC
:105AD00041FEB0E70021E960596AD868A2584254F3
